UseCaseID,TestCaseID,BaseFIXMessage,TagsToUpdate,TagsToValidate,ExpectedValidationResult
UC01,TC001,8=FIX.4.2|9=112|35=D|49=CLIENT1|56=BROKER1|11=INIT|52=INITTIME,49=CLIENT2;56=BROKER2,35=D;11=Run_TC001_.*;52=.*;100=,PASS
UC01,TC002,8=FIX.4.2|9=112|35=D|49=CLIENT3|56=BROKER3|11=INIT|52=INITTIME,49=CLIENT4;56=BROKER4;100=SomeValue,35=D;11=Run_TC002_.*;52=.*;100=SomeValue,PASS
UC02,TC003,8=FIX.4.2|9=112|35=D|49=CLIENT5|56=BROKER5|11=INIT|52=INITTIME,49=CLIENT6;56=BROKER6,35=D;11=Run_TC003_.*;52=.*;200=,PASS
UC02,TC004,8=FIX.4.2|9=112|35=D|49=CLIENT7|56=BROKER7|11=INIT|52=INITTIME,49=CLIENT8;56=BROKER8;200=Value,35=D;11=Run_TC004_.*;52=.*;200=Value,PASS
UC02,TC005,8=FIX.4.2|9=112|35=D|49=CLIENT9|56=BROKER9|11=INIT|52=INITTIME,49=CLIENT10;56=BROKER10,35=D;11=Run_TC005_.*;52=.*;300=,FAIL
UC03,TC006,8=FIX.4.2|9=112|35=D|49=CLIENT11|56=BROKER11|11=INIT|52=INITTIME,49=CLIENT12;56=BROKER12;100=Unexpected,35=D;11=Run_TC006_.*;52=.*;100=ExpectedValue,FAIL
UC03,TC007,8=FIX.4.2|9=112|35=D|49=CLIENT13|56=BROKER13|11=INIT|52=INITTIME,49=CLIENT14;56=BROKER14,35=D;11=Run_TC007_.*;52=.*;49=CLIENT14,PASS
